:020000040000FA
:100000000C9462000C948A000C948A000C948A0070
:100010000C948A000C948A000C948A000C948A0038
:100020000C948A000C948A000C948A000C948A0028
:100030000C948A000C948A000C948A000C948A0018
:100040000C94C9030C948A000C9439040C94130486
:100050000C948A000C948A000C948A000C948A00F8
:100060000C948A000C948A000000000024002700F1
:100070002A000000000023002600290000000000E4
:10008000250028002B0004040404040404040202D4
:100090000202020203030303030301020408102007
:1000A0004080010204081020010204081020000012
:1000B0000008000201000003040700000000000027
:1000C0000000960511241FBECFEFD8E0DEBFCDBFE4
:1000D00012E0A0E0B1E0EAEDFBE002C005900D9275
:1000E000AA30B107D9F722E0AAE0B2E001C01D9220
:1000F000A13BB207E1F710E0C2E6D0E004C02197CF
:10010000FE010E94E505C136D107C9F70E946B04C4
:100110000C94EB050C940000CF92DF92EF92FF92CB
:100120006B017C01E0912402F091250282E0808342
:10013000C11481EED806E104F104A1F060E079E099
:100140008DE390E0A70196010E94C305215031097B
:10015000410951095695479537952795211580E115
:100160003807A8F0E0912402F0912502108260E89F
:1001700074E88EE190E0A70196010E94C30521502A
:100180003109410951095695479537952795E091D1
:100190002002F09121023083E0912202F0912302AB
:1001A000208310922C02E0912802F091290286E02F
:1001B0008083E0912602F091270280818061808314
:1001C000E0912602F0912702808188608083E0918F
:1001D0002602F0912702808180688083E0912602C8
:1001E000F091270280818F7D8083FF90EF90DF90D8
:1001F000CF900895833081F028F4813099F08230D7
:10020000A9F008958730A9F08830C9F08430B1F49E
:10021000809180008F7D03C0809180008F778093D4
:100220008000089584B58F7784BD089584B58F7D4F
:10023000FBCF8091B0008F778093B00008958091BC
:10024000B0008F7DF9CF1F93CF93DF93EBEBF0E0FE
:100250009491E7EAF0E0D491E3E9F0E0C491CC2393
:10026000B9F0182F992319F0892F0E94FA00EC2F6A
:10027000F0E0EE0FFF1FE458FF4FA591B4918FB748
:10028000F894EC91111108C0D095DE23DC938FBF58
:10029000DF91CF911F910895DE2BF8CFCF93DF939D
:1002A000E0EBF0E08491ECE9F0E0D491E8E8F0E0F4
:1002B000C491CC23A1F081110E94FA00EC2FF0E050
:1002C000EE0FFF1FEE58FF4FA591B491EC91ED2377
:1002D00081E090E009F480E0DF91CF91089580E023
:1002E00090E0FACF3FB7F8948091100290911102FC
:1002F000A0911202B091130226B5A89B05C02F3F12
:1003000019F00196A11DB11D3FBFBA2FA92F982F3B
:100310008827BC01CD01620F711D811D911D42E036
:10032000660F771F881F991F4A95D1F708958F92FE
:100330009F92AF92BF92CF92DF92EF92FF926B01AA
:100340007C010E9472014B015C01C114D104E104E3
:10035000F104B9F00E947201681979098A099B09B0
:10036000683E73408105910580F321E0C21AD108EF
:10037000E108F10888EE880E83E0981EA11CB11CEC
:10038000E4CFFF90EF90DF90CF90BF90AF909F9021
:100390008F900895CF93DF93D82FC0E080E00E9424
:1003A000230164EF71E080E090E00E94970181E01A
:1003B0000E94230164EF71E080E090E00E949701C9
:1003C000CF5FDC13EBCFDF91CF910895AF92BF9257
:1003D000CF92DF92EF92FF920F931F93CF93DF9311
:1003E0006C017B018B01040F151FEB015E01AE1840
:1003F000BF08C017D10759F06991D601ED91FC9162
:100400000190F081E02DC6010995892B79F7C5018E
:10041000DF91CF911F910F91FF90EF90DF90CF90E0
:10042000BF90AF900895FC01538D448D252F30E08F
:10043000842F90E0821B930B541710F0CF960895F1
:1004400001970895FC01918D828D981761F0A28D1E
:10045000AE0FBF2FB11D5D968C91928D9F5F9F73E4
:10046000928F90E008958FEF9FEF0895FC01918D9A
:10047000828D981731F0828DE80FF11D858D90E007
:1004800008958FEF9FEF0895FC01918D228D892FA4
:1004900090E0805C9F4F821B91098F73992708958C
:1004A00084E192E00E94440221E0892B09F420E0DB
:1004B000822F089580E090E0892B29F00E9450025D
:1004C00081110C9400000895FC01A48DA80FB92F90
:1004D000B11DA35ABF4F2C91848D90E001968F736C
:1004E0009927848FA689B7892C93A089B1898C918B
:1004F000837080648C93938D848D981306C00288DA
:10050000F389E02D80818F7D80830895EF92FF92A3
:100510000F931F93CF93DF93EC0181E0888F9B8D26
:100520008C8D98131AC0E889F989808185FF15C0E0
:100530009FB7F894EE89FF896083E889F989808103
:100540008370806480839FBF81E090E0DF91CF91D2
:100550001F910F91FF90EF900895F62E0B8D10E0F4
:100560000F5F1F4F0F731127E02E8C8D8E110CC063
:100570000FB607FCFACFE889F989808185FFF5CFAE
:10058000CE010E946402F1CFEB8DEC0FFD2FF11D27
:10059000E35AFF4FF0829FB7F8940B8FEA89FB89EB
:1005A00080818062CFCFCF93DF93EC01888D882349
:1005B000B9F0AA89BB89E889F9898C9185FD03C0C6
:1005C000808186FD0DC00FB607FCF7CF8C9185FFAB
:1005D000F2CF808185FFEDCFCE010E946402E9CF8A
:1005E000DF91CF910895CF92DF92EF92FF928FB774
:1005F000F894C0900C02D0900D02E0900E02F090A2
:100600000F028FBF0E944E01892B39F46AE070E01F
:1006100080E090E00E949701F5CF6EE170E080E00D
:1006200090E00E9497012FB7F89460910C027091AE
:100630000D0280910E0290910F022FBF6C197D095F
:100640008E099F09FF90EF90DF90CF900895FC01F5
:1006500001900020E9F73197AF01481B590BBC010D
:1006600084E192E00C94E6018F929F92AF92BF9248
:100670000F931F93CF93DF93CDB7DEB7A1970FB63C
:10068000F894DEBF0FBECDBF19A2423008F44AE095
:100690008E010F5D1F4F842E912CB12CA12CA50132
:1006A00094010E94C305E62FB901CA01EA30F4F4AF
:1006B000E05DD801EE938D01232B242B252B79F7B8
:1006C00090E080E0109719F0CD010E942703A196D9
:1006D0000FB6F894DEBF0FBECDBFDF91CF911F9153
:1006E0000F91BF90AF909F908F900895E95CE1CFFC
:1006F000CF93DF930E942703EC0186E191E00E94F3
:1007000027038C0F9D1FDF91CF91089510920A024D
:1007100089E191E00E94780382E00C94CA01CF92B3
:10072000DF92EF92FF926B017C018CE391E00E94DB
:1007300027034AE0C701B6010E94340386E191E035
:100740000E94270384E192E00E94D302C09200013C
:10075000D0920101E0920201F0920301C701B601BB
:100760000E948C0084E591E00E94270360910001C3
:100770007091010180910201909103014AE00E9471
:10078000340382EE91E0FF90EF90DF90CF900C94D5
:1007900078031F920F920FB60F9211242F933F935D
:1007A0008F939F93AF93BF9380910C0290910D0212
:1007B000A0910E02B0910F0230910B0223E0230FA3
:1007C0002D3758F50196A11DB11D20930B02809382
:1007D0000C0290930D02A0930E02B0930F02809131
:1007E000100290911102A0911202B0911302019691
:1007F000A11DB11D8093100290931102A0931202CB
:10080000B0931302BF91AF919F918F913F912F9120
:100810000F900FBE0F901F90189526E8230F029699
:10082000A11DB11DD2CF1F920F920FB60F921124AE
:100830002F933F934F935F936F937F938F939F93E8
:10084000AF93BF93EF93FF9384E192E00E94640221
:10085000FF91EF91BF91AF919F918F917F916F9198
:100860005F914F913F912F910F900FBE0F901F906E
:1008700018951F920F920FB60F9211242F938F93FA
:100880009F93EF93FF93E0912402F09125028081E2
:10089000E0912A02F0912B0282FD1BC09081809191
:1008A0002D028F5F8F7320912E02821741F0E0910D
:1008B0002D02F0E0EC5EFD4F958F80932D02FF91AD
:1008C000EF919F918F912F910F900FBE0F901F90DE
:1008D00018958081F4CF789484B5826084BD84B506
:1008E000816084BD85B5826085BD85B5816085BD2B
:1008F00080916E00816080936E00109281008091E3
:10090000810082608093810080918100816080936A
:100910008100809180008160809380008091B1008F
:1009200084608093B1008091B00081608093B000BA
:1009300080917A00846080937A0080917A0082604E
:1009400080937A0080917A00816080937A00809110
:100950007A00806880937A001092C100ECE9F0E0A0
:100960002491E8E8F0E084918823C1F090E0880FBA
:10097000991FFC01E859FF4FC591D491FC01E4583F
:10098000FF4FA591B4919FB7F8943881822F80953D
:1009900083238883EC91E22BEC939FBFE7EAF0E09E
:1009A0002491E3E9F0E08491882399F090E0880FA6
:1009B000991FFC01E859FF4FA591B491FC01E4583F
:1009C000FF4F859194918FB7F894EC91E22BEC93C3
:1009D0008FBF81E00E9423016091000170910101AD
:1009E00080910201909103010E948C0086E691E0C3
:1009F0000E94780389E791E00E947803C0E0D0E08C
:100A000080910A02811134C00E944E01892B39F570
:100A10006EE170E080E090E00E9497010E944E013C
:100A2000892BE9F40E94F302683B7B408105910524
:100A3000B0F081E080930A0282EA91E00E9478039C
:100A400084E00E94CA018BEB91E00E94780380ED64
:100A500091E00E94780387EE91E00E94780320974E
:100A600079F20E945002882359F20E940000C8CFF8
:100A70000E944E01892B99F76EE170E080E090E0D2
:100A80000E9497010E944E01892B49F70E94F302B0
:100A9000683B7B408105910518F00E948603DFCFFB
:100AA0008FB7F894C0900C02D0900D02E0900E0227
:100AB000F0900F028FBF2FB7F89480910C029091A5
:100AC0000D02A0910E02B0910F022FBF8C199D094B
:100AD000AE09BF098A389240A105B105F8F40E9419
:100AE0004E01892B41F76EE170E080E090E00E94BA
:100AF00097010E944E01892BF1F60E94F302683B98
:100B00007B408105910548F682E00E94CA0160E0C1
:100B100072EC81E090E00E948F03A1CF81E00E94FF
:100B2000CA0160E875E280E090E0F5CFE4E1F2E030
:100B30001382128288EE93E0A0E0B0E08483958374
:100B4000A683B78388E091E09183808385EC90E071
:100B50009587848784EC90E09787868780EC90E087
:100B6000918B808B81EC90E0938B828B82EC90E078
:100B7000958B848B86EC90E0978B868B118E128EF2
:100B8000138E148E0895A1E21A2EAA1BBB1BFD0121
:100B90000DC0AA1FBB1FEE1FFF1FA217B307E4075C
:100BA000F50720F0A21BB30BE40BF50B661F771FB4
:100BB000881F991F1A9469F7609570958095909594
:100BC0009B01AC01BD01CF010895EE0FFF1F059001
:100BD000F491E02D0994F894FFCF802500000000E7
:100BE00000008602E6011302D3024402220236020A
:100BF0000D0A0054686F6174206361752068696E26
:100C0000682C2076652063686520646F2076616EAD
:100C10002068616E680043687579656E2062617551
:100C20006420726174652073616E673A20005541DB
:100C300052542064616E672063686179206F2000E0
:100C400048652074686F6E67206B686F6920646FF9
:100C50006E67004E68616E20676975206E7574203E
:100C60003320676961792064652076616F20636154
:100C7000752068696E6820554152540056616F2096
:100C800063686520646F206361752068696E682001
:100C900055415254004E68616E2031206C616E3AAD
:100CA000203936303020627073004E68616E203219
:100CB000206C616E3A2031313532303020627073F1
:100CC000004E68616E20676975203320676961791D
:100CD0002064652074686F617420636175206869A1
:040CE0006E6800003A
:107E0000112484B714BE81FFF0D085E080938100F7
:107E100082E08093C00088E18093C10086E0809377
:107E2000C20080E18093C4008EE0C9D0259A86E02C
:107E300020E33CEF91E0309385002093840096BBD3
:107E4000B09BFECF1D9AA8958150A9F7CC24DD24C4
:107E500088248394B5E0AB2EA1E19A2EF3E0BF2EE7
:107E6000A2D0813461F49FD0082FAFD0023811F036
:107E7000013811F484E001C083E08DD089C08234E0
:107E800011F484E103C0853419F485E0A6D080C0E4
:107E9000853579F488D0E82EFF2485D0082F10E0AE
:107EA000102F00270E291F29000F111F8ED06801E7
:107EB0006FC0863521F484E090D080E0DECF843638
:107EC00009F040C070D06FD0082F6DD080E0C81688
:107ED00080E7D80618F4F601B7BEE895C0E0D1E017
:107EE00062D089930C17E1F7F0E0CF16F0E7DF06D8
:107EF00018F0F601B7BEE89568D007B600FCFDCFD4
:107F0000A601A0E0B1E02C9130E011968C91119780
:107F100090E0982F8827822B932B1296FA010C0160
:107F200087BEE89511244E5F5F4FF1E0A038BF0790
:107F300051F7F601A7BEE89507B600FCFDCF97BE46
:107F4000E89526C08437B1F42ED02DD0F82E2BD052
:107F50003CD0F601EF2C8F010F5F1F4F84911BD097
:107F6000EA94F801C1F70894C11CD11CFA94CF0C13
:107F7000D11C0EC0853739F428D08EE10CD085E9AC
:107F80000AD08FE07ACF813511F488E018D01DD067
:107F900080E101D065CF982F8091C00085FFFCCF94
:107FA0009093C60008958091C00087FFFCCF809118
:107FB000C00084FD01C0A8958091C6000895E0E648
:107FC000F0E098E1908380830895EDDF803219F02E
:107FD00088E0F5DFFFCF84E1DECF1F93182FE3DFCA
:107FE0001150E9F7F2DF1F91089580E0E8DFEE27F6
:047FF000FF270994CA
:027FFE00040479
:00000001FF
